{
	"contracts/FundRaiser.sol": {
		"FundRaiser": {
			"abi": [
				{
					"inputs": [],
					"name": "deposit",
					"outputs": [
						{
							"internalType": "uint256",
							"name": "",
							"type": "uint256"
						}
					],
					"stateMutability": "payable",
					"type": "function"
				},
				{
					"inputs": [],
					"name": "getTotalFunds",
					"outputs": [
						{
							"internalType": "uint256",
							"name": "",
							"type": "uint256"
						}
					],
					"stateMutability": "view",
					"type": "function"
				},
				{
					"inputs": [],
					"name": "myBalance",
					"outputs": [
						{
							"internalType": "uint256",
							"name": "",
							"type": "uint256"
						}
					],
					"stateMutability": "view",
					"type": "function"
				},
				{
					"inputs": [],
					"name": "withdraw",
					"outputs": [],
					"stateMutability": "nonpayable",
					"type": "function"
				}
			],
			"devdoc": {
				"kind": "dev",
				"methods": {},
				"version": 1
			},
			"evm": {
				"assembly": "    /* \"contracts/FundRaiser.sol\":63:989  contract FundRaiser{... */\n  mstore(0x40, 0x80)\n  callvalue\n  dup1\n  iszero\n  tag_1\n  jumpi\n  revert(0x00, 0x00)\ntag_1:\n  pop\n  dataSize(sub_0)\n  dup1\n  dataOffset(sub_0)\n  0x00\n  codecopy\n  0x00\n  return\nstop\n\nsub_0: assembly {\n        /* \"contracts/FundRaiser.sol\":63:989  contract FundRaiser{... */\n      mstore(0x40, 0x80)\n      jumpi(tag_1, lt(calldatasize, 0x04))\n      shr(0xe0, calldataload(0x00))\n      dup1\n      0x3ccfd60b\n      eq\n      tag_2\n      jumpi\n      dup1\n      0xc9116b69\n      eq\n      tag_3\n      jumpi\n      dup1\n      0xd0e30db0\n      eq\n      tag_4\n      jumpi\n      dup1\n      0xeb8bbd28\n      eq\n      tag_5\n      jumpi\n    tag_1:\n      revert(0x00, 0x00)\n        /* \"contracts/FundRaiser.sol\":426:782  function withdraw()external{... */\n    tag_2:\n      callvalue\n      dup1\n      iszero\n      tag_6\n      jumpi\n      revert(0x00, 0x00)\n    tag_6:\n      pop\n      tag_7\n      tag_8\n      jump\t// in\n    tag_7:\n      stop\n        /* \"contracts/FundRaiser.sol\":897:987  function myBalance() public view returns(uint){... */\n    tag_3:\n      callvalue\n      dup1\n      iszero\n      tag_9\n      jumpi\n      revert(0x00, 0x00)\n    tag_9:\n      pop\n      tag_10\n      tag_11\n      jump\t// in\n    tag_10:\n      mload(0x40)\n      tag_12\n      swap2\n      swap1\n      tag_13\n      jump\t// in\n    tag_12:\n      mload(0x40)\n      dup1\n      swap2\n      sub\n      swap1\n      return\n        /* \"contracts/FundRaiser.sol\":131:266  function deposit()external payable returns(uint){... */\n    tag_4:\n      tag_14\n      tag_15\n      jump\t// in\n    tag_14:\n      mload(0x40)\n      tag_16\n      swap2\n      swap1\n      tag_13\n      jump\t// in\n    tag_16:\n      mload(0x40)\n      dup1\n      swap2\n      sub\n      swap1\n      return\n        /* \"contracts/FundRaiser.sol\":792:887  function getTotalFunds() public view returns(uint){... */\n    tag_5:\n      callvalue\n      dup1\n      iszero\n      tag_17\n      jumpi\n      revert(0x00, 0x00)\n    tag_17:\n      pop\n      tag_18\n      tag_19\n      jump\t// in\n    tag_18:\n      mload(0x40)\n      tag_20\n      swap2\n      swap1\n      tag_13\n      jump\t// in\n    tag_20:\n      mload(0x40)\n      dup1\n      swap2\n      sub\n      swap1\n      return\n        /* \"contracts/FundRaiser.sol\":426:782  function withdraw()external{... */\n    tag_8:\n        /* \"contracts/FundRaiser.sol\":463:484  uint amountToWithdraw */\n      0x00\n        /* \"contracts/FundRaiser.sol\":487:495  balances */\n      0x00\n        /* \"contracts/FundRaiser.sol\":487:507  balances[msg.sender] */\n      0x00\n        /* \"contracts/FundRaiser.sol\":496:506  msg.sender */\n      caller\n        /* \"contracts/FundRaiser.sol\":487:507  balances[msg.sender] */\n      0xffffffffffffffffffffffffffffffffffffffff\n      and\n      0xffffffffffffffffffffffffffffffffffffffff\n      and\n      dup2\n      mstore\n      0x20\n      add\n      swap1\n      dup2\n      mstore\n      0x20\n      add\n      0x00\n      keccak256\n      sload\n        /* \"contracts/FundRaiser.sol\":463:507  uint amountToWithdraw = balances[msg.sender] */\n      swap1\n      pop\n        /* \"contracts/FundRaiser.sol\":544:545  0 */\n      0x00\n        /* \"contracts/FundRaiser.sol\":525:541  amountToWithdraw */\n      dup2\n        /* \"contracts/FundRaiser.sol\":525:545  amountToWithdraw > 0 */\n      gt\n        /* \"contracts/FundRaiser.sol\":517:580  require(amountToWithdraw > 0, 'Insufficient funds to withdraw') */\n      tag_22\n      jumpi\n      mload(0x40)\n      0x08c379a000000000000000000000000000000000000000000000000000000000\n      dup2\n      mstore\n      0x04\n      add\n      tag_23\n      swap1\n      tag_24\n      jump\t// in\n    tag_23:\n      mload(0x40)\n      dup1\n      swap2\n      sub\n      swap1\n      revert\n    tag_22:\n        /* \"contracts/FundRaiser.sol\":599:611  bool success */\n      0x00\n        /* \"contracts/FundRaiser.sol\":616:626  msg.sender */\n      caller\n        /* \"contracts/FundRaiser.sol\":616:631  msg.sender.call */\n      0xffffffffffffffffffffffffffffffffffffffff\n      and\n        /* \"contracts/FundRaiser.sol\":639:655  amountToWithdraw */\n      dup3\n        /* \"contracts/FundRaiser.sol\":616:660  msg.sender.call{value: amountToWithdraw}(\"\") */\n      mload(0x40)\n      tag_25\n      swap1\n      tag_26\n      jump\t// in\n    tag_25:\n      0x00\n      mload(0x40)\n      dup1\n      dup4\n      sub\n      dup2\n      dup6\n      dup8\n      gas\n      call\n      swap3\n      pop\n      pop\n      pop\n      returndatasize\n      dup1\n      0x00\n      dup2\n      eq\n      tag_29\n      jumpi\n      mload(0x40)\n      swap2\n      pop\n      and(add(returndatasize, 0x3f), not(0x1f))\n      dup3\n      add\n      0x40\n      mstore\n      returndatasize\n      dup3\n      mstore\n      returndatasize\n      0x00\n      0x20\n      dup5\n      add\n      returndatacopy\n      jump(tag_28)\n    tag_29:\n      0x60\n      swap2\n      pop\n    tag_28:\n      pop\n        /* \"contracts/FundRaiser.sol\":598:660  (bool success,) = msg.sender.call{value: amountToWithdraw}(\"\") */\n      pop\n      swap1\n      pop\n        /* \"contracts/FundRaiser.sol\":692:699  success */\n      dup1\n        /* \"contracts/FundRaiser.sol\":684:720  require(success,\"Withdrawal falied\") */\n      tag_30\n      jumpi\n      mload(0x40)\n      0x08c379a000000000000000000000000000000000000000000000000000000000\n      dup2\n      mstore\n      0x04\n      add\n      tag_31\n      swap1\n      tag_32\n      jump\t// in\n    tag_31:\n      mload(0x40)\n      dup1\n      swap2\n      sub\n      swap1\n      revert\n    tag_30:\n        /* \"contracts/FundRaiser.sol\":753:754  0 */\n      0x00\n        /* \"contracts/FundRaiser.sol\":730:738  balances */\n      0x00\n        /* \"contracts/FundRaiser.sol\":730:750  balances[msg.sender] */\n      0x00\n        /* \"contracts/FundRaiser.sol\":739:749  msg.sender */\n      caller\n        /* \"contracts/FundRaiser.sol\":730:750  balances[msg.sender] */\n      0xffffffffffffffffffffffffffffffffffffffff\n      and\n      0xffffffffffffffffffffffffffffffffffffffff\n      and\n      dup2\n      mstore\n      0x20\n      add\n      swap1\n      dup2\n      mstore\n      0x20\n      add\n      0x00\n      keccak256\n        /* \"contracts/FundRaiser.sol\":730:754  balances[msg.sender] = 0 */\n      dup2\n      swap1\n      sstore\n      pop\n        /* \"contracts/FundRaiser.sol\":453:782  {... */\n      pop\n      pop\n        /* \"contracts/FundRaiser.sol\":426:782  function withdraw()external{... */\n      jump\t// out\n        /* \"contracts/FundRaiser.sol\":897:987  function myBalance() public view returns(uint){... */\n    tag_11:\n        /* \"contracts/FundRaiser.sol\":938:942  uint */\n      0x00\n        /* \"contracts/FundRaiser.sol\":960:968  balances */\n      0x00\n        /* \"contracts/FundRaiser.sol\":960:980  balances[msg.sender] */\n      0x00\n        /* \"contracts/FundRaiser.sol\":969:979  msg.sender */\n      caller\n        /* \"contracts/FundRaiser.sol\":960:980  balances[msg.sender] */\n      0xffffffffffffffffffffffffffffffffffffffff\n      and\n      0xffffffffffffffffffffffffffffffffffffffff\n      and\n      dup2\n      mstore\n      0x20\n      add\n      swap1\n      dup2\n      mstore\n      0x20\n      add\n      0x00\n      keccak256\n      sload\n        /* \"contracts/FundRaiser.sol\":953:980  return balances[msg.sender] */\n      swap1\n      pop\n        /* \"contracts/FundRaiser.sol\":897:987  function myBalance() public view returns(uint){... */\n      swap1\n      jump\t// out\n        /* \"contracts/FundRaiser.sol\":131:266  function deposit()external payable returns(uint){... */\n    tag_15:\n        /* \"contracts/FundRaiser.sol\":174:178  uint */\n      0x00\n        /* \"contracts/FundRaiser.sol\":213:222  msg.value */\n      callvalue\n        /* \"contracts/FundRaiser.sol\":189:197  balances */\n      0x00\n        /* \"contracts/FundRaiser.sol\":189:209  balances[msg.sender] */\n      0x00\n        /* \"contracts/FundRaiser.sol\":198:208  msg.sender */\n      caller\n        /* \"contracts/FundRaiser.sol\":189:209  balances[msg.sender] */\n      0xffffffffffffffffffffffffffffffffffffffff\n      and\n      0xffffffffffffffffffffffffffffffffffffffff\n      and\n      dup2\n      mstore\n      0x20\n      add\n      swap1\n      dup2\n      mstore\n      0x20\n      add\n      0x00\n      keccak256\n      0x00\n        /* \"contracts/FundRaiser.sol\":189:222  balances[msg.sender] += msg.value */\n      dup3\n      dup3\n      sload\n      tag_35\n      swap2\n      swap1\n      tag_36\n      jump\t// in\n    tag_35:\n      swap3\n      pop\n      pop\n      dup2\n      swap1\n      sstore\n      pop\n        /* \"contracts/FundRaiser.sol\":239:247  balances */\n      0x00\n        /* \"contracts/FundRaiser.sol\":239:259  balances[msg.sender] */\n      0x00\n        /* \"contracts/FundRaiser.sol\":248:258  msg.sender */\n      caller\n        /* \"contracts/FundRaiser.sol\":239:259  balances[msg.sender] */\n      0xffffffffffffffffffffffffffffffffffffffff\n      and\n      0xffffffffffffffffffffffffffffffffffffffff\n      and\n      dup2\n      mstore\n      0x20\n      add\n      swap1\n      dup2\n      mstore\n      0x20\n      add\n      0x00\n      keccak256\n      sload\n        /* \"contracts/FundRaiser.sol\":232:259  return balances[msg.sender] */\n      swap1\n      pop\n        /* \"contracts/FundRaiser.sol\":131:266  function deposit()external payable returns(uint){... */\n      swap1\n      jump\t// out\n        /* \"contracts/FundRaiser.sol\":792:887  function getTotalFunds() public view returns(uint){... */\n    tag_19:\n        /* \"contracts/FundRaiser.sol\":837:841  uint */\n      0x00\n        /* \"contracts/FundRaiser.sol\":859:880  address(this).balance */\n      selfbalance\n        /* \"contracts/FundRaiser.sol\":852:880  return address(this).balance */\n      swap1\n      pop\n        /* \"contracts/FundRaiser.sol\":792:887  function getTotalFunds() public view returns(uint){... */\n      swap1\n      jump\t// out\n        /* \"#utility.yul\":7:84   */\n    tag_38:\n        /* \"#utility.yul\":44:51   */\n      0x00\n        /* \"#utility.yul\":73:78   */\n      dup2\n        /* \"#utility.yul\":62:78   */\n      swap1\n      pop\n        /* \"#utility.yul\":7:84   */\n      swap2\n      swap1\n      pop\n      jump\t// out\n        /* \"#utility.yul\":90:208   */\n    tag_39:\n        /* \"#utility.yul\":177:201   */\n      tag_52\n        /* \"#utility.yul\":195:200   */\n      dup2\n        /* \"#utility.yul\":177:201   */\n      tag_38\n      jump\t// in\n    tag_52:\n        /* \"#utility.yul\":172:175   */\n      dup3\n        /* \"#utility.yul\":165:202   */\n      mstore\n        /* \"#utility.yul\":90:208   */\n      pop\n      pop\n      jump\t// out\n        /* \"#utility.yul\":214:436   */\n    tag_13:\n        /* \"#utility.yul\":307:311   */\n      0x00\n        /* \"#utility.yul\":345:347   */\n      0x20\n        /* \"#utility.yul\":334:343   */\n      dup3\n        /* \"#utility.yul\":330:348   */\n      add\n        /* \"#utility.yul\":322:348   */\n      swap1\n      pop\n        /* \"#utility.yul\":358:429   */\n      tag_54\n        /* \"#utility.yul\":426:427   */\n      0x00\n        /* \"#utility.yul\":415:424   */\n      dup4\n        /* \"#utility.yul\":411:428   */\n      add\n        /* \"#utility.yul\":402:408   */\n      dup5\n        /* \"#utility.yul\":358:429   */\n      tag_39\n      jump\t// in\n    tag_54:\n        /* \"#utility.yul\":214:436   */\n      swap3\n      swap2\n      pop\n      pop\n      jump\t// out\n        /* \"#utility.yul\":442:611   */\n    tag_40:\n        /* \"#utility.yul\":526:537   */\n      0x00\n        /* \"#utility.yul\":560:566   */\n      dup3\n        /* \"#utility.yul\":555:558   */\n      dup3\n        /* \"#utility.yul\":548:567   */\n      mstore\n        /* \"#utility.yul\":600:604   */\n      0x20\n        /* \"#utility.yul\":595:598   */\n      dup3\n        /* \"#utility.yul\":591:605   */\n      add\n        /* \"#utility.yul\":576:605   */\n      swap1\n      pop\n        /* \"#utility.yul\":442:611   */\n      swap3\n      swap2\n      pop\n      pop\n      jump\t// out\n        /* \"#utility.yul\":617:797   */\n    tag_41:\n        /* \"#utility.yul\":757:789   */\n      0x496e73756666696369656e742066756e647320746f2077697468647261770000\n        /* \"#utility.yul\":753:754   */\n      0x00\n        /* \"#utility.yul\":745:751   */\n      dup3\n        /* \"#utility.yul\":741:755   */\n      add\n        /* \"#utility.yul\":734:790   */\n      mstore\n        /* \"#utility.yul\":617:797   */\n      pop\n      jump\t// out\n        /* \"#utility.yul\":803:1169   */\n    tag_42:\n        /* \"#utility.yul\":945:948   */\n      0x00\n        /* \"#utility.yul\":966:1033   */\n      tag_58\n        /* \"#utility.yul\":1030:1032   */\n      0x1e\n        /* \"#utility.yul\":1025:1028   */\n      dup4\n        /* \"#utility.yul\":966:1033   */\n      tag_40\n      jump\t// in\n    tag_58:\n        /* \"#utility.yul\":959:1033   */\n      swap2\n      pop\n        /* \"#utility.yul\":1042:1135   */\n      tag_59\n        /* \"#utility.yul\":1131:1134   */\n      dup3\n        /* \"#utility.yul\":1042:1135   */\n      tag_41\n      jump\t// in\n    tag_59:\n        /* \"#utility.yul\":1160:1162   */\n      0x20\n        /* \"#utility.yul\":1155:1158   */\n      dup3\n        /* \"#utility.yul\":1151:1163   */\n      add\n        /* \"#utility.yul\":1144:1163   */\n      swap1\n      pop\n        /* \"#utility.yul\":803:1169   */\n      swap2\n      swap1\n      pop\n      jump\t// out\n        /* \"#utility.yul\":1175:1594   */\n    tag_24:\n        /* \"#utility.yul\":1341:1345   */\n      0x00\n        /* \"#utility.yul\":1379:1381   */\n      0x20\n        /* \"#utility.yul\":1368:1377   */\n      dup3\n        /* \"#utility.yul\":1364:1382   */\n      add\n        /* \"#utility.yul\":1356:1382   */\n      swap1\n      pop\n        /* \"#utility.yul\":1428:1437   */\n      dup2\n        /* \"#utility.yul\":1422:1426   */\n      dup2\n        /* \"#utility.yul\":1418:1438   */\n      sub\n        /* \"#utility.yul\":1414:1415   */\n      0x00\n        /* \"#utility.yul\":1403:1412   */\n      dup4\n        /* \"#utility.yul\":1399:1416   */\n      add\n        /* \"#utility.yul\":1392:1439   */\n      mstore\n        /* \"#utility.yul\":1456:1587   */\n      tag_61\n        /* \"#utility.yul\":1582:1586   */\n      dup2\n        /* \"#utility.yul\":1456:1587   */\n      tag_42\n      jump\t// in\n    tag_61:\n        /* \"#utility.yul\":1448:1587   */\n      swap1\n      pop\n        /* \"#utility.yul\":1175:1594   */\n      swap2\n      swap1\n      pop\n      jump\t// out\n        /* \"#utility.yul\":1600:1747   */\n    tag_43:\n        /* \"#utility.yul\":1701:1712   */\n      0x00\n        /* \"#utility.yul\":1738:1741   */\n      dup2\n        /* \"#utility.yul\":1723:1741   */\n      swap1\n      pop\n        /* \"#utility.yul\":1600:1747   */\n      swap3\n      swap2\n      pop\n      pop\n      jump\t// out\n        /* \"#utility.yul\":1753:1867   */\n    tag_44:\n      pop\n      jump\t// out\n        /* \"#utility.yul\":1873:2271   */\n    tag_45:\n        /* \"#utility.yul\":2032:2035   */\n      0x00\n        /* \"#utility.yul\":2053:2136   */\n      tag_65\n        /* \"#utility.yul\":2134:2135   */\n      0x00\n        /* \"#utility.yul\":2129:2132   */\n      dup4\n        /* \"#utility.yul\":2053:2136   */\n      tag_43\n      jump\t// in\n    tag_65:\n        /* \"#utility.yul\":2046:2136   */\n      swap2\n      pop\n        /* \"#utility.yul\":2145:2238   */\n      tag_66\n        /* \"#utility.yul\":2234:2237   */\n      dup3\n        /* \"#utility.yul\":2145:2238   */\n      tag_44\n      jump\t// in\n    tag_66:\n        /* \"#utility.yul\":2263:2264   */\n      0x00\n        /* \"#utility.yul\":2258:2261   */\n      dup3\n        /* \"#utility.yul\":2254:2265   */\n      add\n        /* \"#utility.yul\":2247:2265   */\n      swap1\n      pop\n        /* \"#utility.yul\":1873:2271   */\n      swap2\n      swap1\n      pop\n      jump\t// out\n        /* \"#utility.yul\":2277:2656   */\n    tag_26:\n        /* \"#utility.yul\":2461:2464   */\n      0x00\n        /* \"#utility.yul\":2483:2630   */\n      tag_68\n        /* \"#utility.yul\":2626:2629   */\n      dup3\n        /* \"#utility.yul\":2483:2630   */\n      tag_45\n      jump\t// in\n    tag_68:\n        /* \"#utility.yul\":2476:2630   */\n      swap2\n      pop\n        /* \"#utility.yul\":2647:2650   */\n      dup2\n        /* \"#utility.yul\":2640:2650   */\n      swap1\n      pop\n        /* \"#utility.yul\":2277:2656   */\n      swap2\n      swap1\n      pop\n      jump\t// out\n        /* \"#utility.yul\":2662:2829   */\n    tag_46:\n        /* \"#utility.yul\":2802:2821   */\n      0x5769746864726177616c2066616c696564000000000000000000000000000000\n        /* \"#utility.yul\":2798:2799   */\n      0x00\n        /* \"#utility.yul\":2790:2796   */\n      dup3\n        /* \"#utility.yul\":2786:2800   */\n      add\n        /* \"#utility.yul\":2779:2822   */\n      mstore\n        /* \"#utility.yul\":2662:2829   */\n      pop\n      jump\t// out\n        /* \"#utility.yul\":2835:3201   */\n    tag_47:\n        /* \"#utility.yul\":2977:2980   */\n      0x00\n        /* \"#utility.yul\":2998:3065   */\n      tag_71\n        /* \"#utility.yul\":3062:3064   */\n      0x11\n        /* \"#utility.yul\":3057:3060   */\n      dup4\n        /* \"#utility.yul\":2998:3065   */\n      tag_40\n      jump\t// in\n    tag_71:\n        /* \"#utility.yul\":2991:3065   */\n      swap2\n      pop\n        /* \"#utility.yul\":3074:3167   */\n      tag_72\n        /* \"#utility.yul\":3163:3166   */\n      dup3\n        /* \"#utility.yul\":3074:3167   */\n      tag_46\n      jump\t// in\n    tag_72:\n        /* \"#utility.yul\":3192:3194   */\n      0x20\n        /* \"#utility.yul\":3187:3190   */\n      dup3\n        /* \"#utility.yul\":3183:3195   */\n      add\n        /* \"#utility.yul\":3176:3195   */\n      swap1\n      pop\n        /* \"#utility.yul\":2835:3201   */\n      swap2\n      swap1\n      pop\n      jump\t// out\n        /* \"#utility.yul\":3207:3626   */\n    tag_32:\n        /* \"#utility.yul\":3373:3377   */\n      0x00\n        /* \"#utility.yul\":3411:3413   */\n      0x20\n        /* \"#utility.yul\":3400:3409   */\n      dup3\n        /* \"#utility.yul\":3396:3414   */\n      add\n        /* \"#utility.yul\":3388:3414   */\n      swap1\n      pop\n        /* \"#utility.yul\":3460:3469   */\n      dup2\n        /* \"#utility.yul\":3454:3458   */\n      dup2\n        /* \"#utility.yul\":3450:3470   */\n      sub\n        /* \"#utility.yul\":3446:3447   */\n      0x00\n        /* \"#utility.yul\":3435:3444   */\n      dup4\n        /* \"#utility.yul\":3431:3448   */\n      add\n        /* \"#utility.yul\":3424:3471   */\n      mstore\n        /* \"#utility.yul\":3488:3619   */\n      tag_74\n        /* \"#utility.yul\":3614:3618   */\n      dup2\n        /* \"#utility.yul\":3488:3619   */\n      tag_47\n      jump\t// in\n    tag_74:\n        /* \"#utility.yul\":3480:3619   */\n      swap1\n      pop\n        /* \"#utility.yul\":3207:3626   */\n      swap2\n      swap1\n      pop\n      jump\t// out\n        /* \"#utility.yul\":3632:3812   */\n    tag_48:\n        /* \"#utility.yul\":3680:3757   */\n      0x4e487b7100000000000000000000000000000000000000000000000000000000\n        /* \"#utility.yul\":3677:3678   */\n      0x00\n        /* \"#utility.yul\":3670:3758   */\n      mstore\n        /* \"#utility.yul\":3777:3781   */\n      0x11\n        /* \"#utility.yul\":3774:3775   */\n      0x04\n        /* \"#utility.yul\":3767:3782   */\n      mstore\n        /* \"#utility.yul\":3801:3805   */\n      0x24\n        /* \"#utility.yul\":3798:3799   */\n      0x00\n        /* \"#utility.yul\":3791:3806   */\n      revert\n        /* \"#utility.yul\":3818:4009   */\n    tag_36:\n        /* \"#utility.yul\":3858:3861   */\n      0x00\n        /* \"#utility.yul\":3877:3897   */\n      tag_77\n        /* \"#utility.yul\":3895:3896   */\n      dup3\n        /* \"#utility.yul\":3877:3897   */\n      tag_38\n      jump\t// in\n    tag_77:\n        /* \"#utility.yul\":3872:3897   */\n      swap2\n      pop\n        /* \"#utility.yul\":3911:3931   */\n      tag_78\n        /* \"#utility.yul\":3929:3930   */\n      dup4\n        /* \"#utility.yul\":3911:3931   */\n      tag_38\n      jump\t// in\n    tag_78:\n        /* \"#utility.yul\":3906:3931   */\n      swap3\n      pop\n        /* \"#utility.yul\":3954:3955   */\n      dup3\n        /* \"#utility.yul\":3951:3952   */\n      dup3\n        /* \"#utility.yul\":3947:3956   */\n      add\n        /* \"#utility.yul\":3940:3956   */\n      swap1\n      pop\n        /* \"#utility.yul\":3975:3978   */\n      dup1\n        /* \"#utility.yul\":3972:3973   */\n      dup3\n        /* \"#utility.yul\":3969:3979   */\n      gt\n        /* \"#utility.yul\":3966:4002   */\n      iszero\n      tag_79\n      jumpi\n        /* \"#utility.yul\":3982:4000   */\n      tag_80\n      tag_48\n      jump\t// in\n    tag_80:\n        /* \"#utility.yul\":3966:4002   */\n    tag_79:\n        /* \"#utility.yul\":3818:4009   */\n      swap3\n      swap2\n      pop\n      pop\n      jump\t// out\n\n    auxdata: 0xa264697066735822122083417774f706a30f6656f9961e4d3fb16fa013e0b9cfb21bf518814b7539e08b64736f6c634300081e0033\n}\n",
				"bytecode": {
					"linkReferences": {},
					"object": "6080604052348015600e575f5ffd5b506105008061001c5f395ff3fe60806040526004361061003e575f3560e01c80633ccfd60b14610042578063c9116b6914610058578063d0e30db014610082578063eb8bbd28146100a0575b5f5ffd5b34801561004d575f5ffd5b506100566100ca565b005b348015610063575f5ffd5b5061006c610239565b6040516100799190610330565b60405180910390f35b61008a61027c565b6040516100979190610330565b60405180910390f35b3480156100ab575f5ffd5b506100b4610311565b6040516100c19190610330565b60405180910390f35b5f5f5f3373ffffffffffffffffffffffffffffffffffffffff1673ffffffffffffffffffffffffffffffffffffffff1681526020019081526020015f205490505f811161014c576040517f08c379a0000000000000000000000000000000000000000000000000000000008152600401610143906103a3565b60405180910390fd5b5f3373ffffffffffffffffffffffffffffffffffffffff1682604051610171906103ee565b5f6040518083038185875af1925050503d805f81146101ab576040519150601f19603f3d011682016040523d82523d5f602084013e6101b0565b606091505b50509050806101f4576040517f08c379a00000000000000000000000000000000000000000000000000000000081526004016101eb9061044c565b60405180910390fd5b5f5f5f3373ffffffffffffffffffffffffffffffffffffffff1673ffffffffffffffffffffffffffffffffffffffff1681526020019081526020015f20819055505050565b5f5f5f3373ffffffffffffffffffffffffffffffffffffffff1673ffffffffffffffffffffffffffffffffffffffff1681526020019081526020015f2054905090565b5f345f5f3373ffffffffffffffffffffffffffffffffffffffff1673ffffffffffffffffffffffffffffffffffffffff1681526020019081526020015f205f8282546102c89190610497565b925050819055505f5f3373ffffffffffffffffffffffffffffffffffffffff1673ffffffffffffffffffffffffffffffffffffffff1681526020019081526020015f2054905090565b5f47905090565b5f819050919050565b61032a81610318565b82525050565b5f6020820190506103435f830184610321565b92915050565b5f82825260208201905092915050565b7f496e73756666696369656e742066756e647320746f20776974686472617700005f82015250565b5f61038d601e83610349565b915061039882610359565b602082019050919050565b5f6020820190508181035f8301526103ba81610381565b9050919050565b5f81905092915050565b50565b5f6103d95f836103c1565b91506103e4826103cb565b5f82019050919050565b5f6103f8826103ce565b9150819050919050565b7f5769746864726177616c2066616c6965640000000000000000000000000000005f82015250565b5f610436601183610349565b915061044182610402565b602082019050919050565b5f6020820190508181035f8301526104638161042a565b9050919050565b7f4e487b71000000000000000000000000000000000000000000000000000000005f52601160045260245ffd5b5f6104a182610318565b91506104ac83610318565b92508282019050808211156104c4576104c361046a565b5b9291505056fea264697066735822122083417774f706a30f6656f9961e4d3fb16fa013e0b9cfb21bf518814b7539e08b64736f6c634300081e0033",
					"opcodes": "PUSH1 0x80 PUSH1 0x40 MSTORE CALLVALUE DUP1 ISZERO PUSH1 0xE JUMPI PUSH0 PUSH0 REVERT JUMPDEST POP PUSH2 0x500 DUP1 PUSH2 0x1C PUSH0 CODECOPY PUSH0 RETURN INVALID PUSH1 0x80 PUSH1 0x40 MSTORE PUSH1 0x4 CALLDATASIZE LT PUSH2 0x3E JUMPI PUSH0 CALLDATALOAD PUSH1 0xE0 SHR DUP1 PUSH4 0x3CCFD60B EQ PUSH2 0x42 JUMPI DUP1 PUSH4 0xC9116B69 EQ PUSH2 0x58 JUMPI DUP1 PUSH4 0xD0E30DB0 EQ PUSH2 0x82 JUMPI DUP1 PUSH4 0xEB8BBD28 EQ PUSH2 0xA0 JUMPI JUMPDEST PUSH0 PUSH0 REVERT JUMPDEST CALLVALUE DUP1 ISZERO PUSH2 0x4D JUMPI PUSH0 PUSH0 REVERT JUMPDEST POP PUSH2 0x56 PUSH2 0xCA JUMP JUMPDEST STOP JUMPDEST CALLVALUE DUP1 ISZERO PUSH2 0x63 JUMPI PUSH0 PUSH0 REVERT JUMPDEST POP PUSH2 0x6C PUSH2 0x239 JUMP JUMPDEST PUSH1 0x40 MLOAD PUSH2 0x79 SWAP2 SWAP1 PUSH2 0x330 JUMP JUMPDEST PUSH1 0x40 MLOAD DUP1 SWAP2 SUB SWAP1 RETURN JUMPDEST PUSH2 0x8A PUSH2 0x27C JUMP JUMPDEST PUSH1 0x40 MLOAD PUSH2 0x97 SWAP2 SWAP1 PUSH2 0x330 JUMP JUMPDEST PUSH1 0x40 MLOAD DUP1 SWAP2 SUB SWAP1 RETURN JUMPDEST CALLVALUE DUP1 ISZERO PUSH2 0xAB JUMPI PUSH0 PUSH0 REVERT JUMPDEST POP PUSH2 0xB4 PUSH2 0x311 JUMP JUMPDEST PUSH1 0x40 MLOAD PUSH2 0xC1 SWAP2 SWAP1 PUSH2 0x330 JUMP JUMPDEST PUSH1 0x40 MLOAD DUP1 SWAP2 SUB SWAP1 RETURN JUMPDEST PUSH0 PUSH0 PUSH0 CALLER PUSH20 0xFFFFFFFFFFFFFFFFFFFFFFFFFFFFFFFFFFFFFFFF AND PUSH20 0xFFFFFFFFFFFFFFFFFFFFFFFFFFFFFFFFFFFFFFFF AND DUP2 MSTORE PUSH1 0x20 ADD SWAP1 DUP2 MSTORE PUSH1 0x20 ADD PUSH0 KECCAK256 SLOAD SWAP1 POP PUSH0 DUP2 GT PUSH2 0x14C JUMPI PUSH1 0x40 MLOAD PUSH32 0x8C379A000000000000000000000000000000000000000000000000000000000 DUP2 MSTORE PUSH1 0x4 ADD PUSH2 0x143 SWAP1 PUSH2 0x3A3 JUMP JUMPDEST PUSH1 0x40 MLOAD DUP1 SWAP2 SUB SWAP1 REVERT JUMPDEST PUSH0 CALLER PUSH20 0xFFFFFFFFFFFFFFFFFFFFFFFFFFFFFFFFFFFFFFFF AND DUP3 PUSH1 0x40 MLOAD PUSH2 0x171 SWAP1 PUSH2 0x3EE JUMP JUMPDEST PUSH0 PUSH1 0x40 MLOAD DUP1 DUP4 SUB DUP2 DUP6 DUP8 GAS CALL SWAP3 POP POP POP RETURNDATASIZE DUP1 PUSH0 DUP2 EQ PUSH2 0x1AB JUMPI PUSH1 0x40 MLOAD SWAP2 POP PUSH1 0x1F NOT PUSH1 0x3F RETURNDATASIZE ADD AND DUP3 ADD PUSH1 0x40 MSTORE RETURNDATASIZE DUP3 MSTORE RETURNDATASIZE PUSH0 PUSH1 0x20 DUP5 ADD RETURNDATACOPY PUSH2 0x1B0 JUMP JUMPDEST PUSH1 0x60 SWAP2 POP JUMPDEST POP POP SWAP1 POP DUP1 PUSH2 0x1F4 JUMPI PUSH1 0x40 MLOAD PUSH32 0x8C379A000000000000000000000000000000000000000000000000000000000 DUP2 MSTORE PUSH1 0x4 ADD PUSH2 0x1EB SWAP1 PUSH2 0x44C JUMP JUMPDEST PUSH1 0x40 MLOAD DUP1 SWAP2 SUB SWAP1 REVERT JUMPDEST PUSH0 PUSH0 PUSH0 CALLER PUSH20 0xFFFFFFFFFFFFFFFFFFFFFFFFFFFFFFFFFFFFFFFF AND PUSH20 0xFFFFFFFFFFFFFFFFFFFFFFFFFFFFFFFFFFFFFFFF AND DUP2 MSTORE PUSH1 0x20 ADD SWAP1 DUP2 MSTORE PUSH1 0x20 ADD PUSH0 KECCAK256 DUP2 SWAP1 SSTORE POP POP POP JUMP JUMPDEST PUSH0 PUSH0 PUSH0 CALLER PUSH20 0xFFFFFFFFFFFFFFFFFFFFFFFFFFFFFFFFFFFFFFFF AND PUSH20 0xFFFFFFFFFFFFFFFFFFFFFFFFFFFFFFFFFFFFFFFF AND DUP2 MSTORE PUSH1 0x20 ADD SWAP1 DUP2 MSTORE PUSH1 0x20 ADD PUSH0 KECCAK256 SLOAD SWAP1 POP SWAP1 JUMP JUMPDEST PUSH0 CALLVALUE PUSH0 PUSH0 CALLER PUSH20 0xFFFFFFFFFFFFFFFFFFFFFFFFFFFFFFFFFFFFFFFF AND PUSH20 0xFFFFFFFFFFFFFFFFFFFFFFFFFFFFFFFFFFFFFFFF AND DUP2 MSTORE PUSH1 0x20 ADD SWAP1 DUP2 MSTORE PUSH1 0x20 ADD PUSH0 KECCAK256 PUSH0 DUP3 DUP3 SLOAD PUSH2 0x2C8 SWAP2 SWAP1 PUSH2 0x497 JUMP JUMPDEST SWAP3 POP POP DUP2 SWAP1 SSTORE POP PUSH0 PUSH0 CALLER PUSH20 0xFFFFFFFFFFFFFFFFFFFFFFFFFFFFFFFFFFFFFFFF AND PUSH20 0xFFFFFFFFFFFFFFFFFFFFFFFFFFFFFFFFFFFFFFFF AND DUP2 MSTORE PUSH1 0x20 ADD SWAP1 DUP2 MSTORE PUSH1 0x20 ADD PUSH0 KECCAK256 SLOAD SWAP1 POP SWAP1 JUMP JUMPDEST PUSH0 SELFBALANCE SWAP1 POP SWAP1 JUMP JUMPDEST PUSH0 DUP2 SWAP1 POP SWAP2 SWAP1 POP JUMP JUMPDEST PUSH2 0x32A DUP2 PUSH2 0x318 JUMP JUMPDEST DUP3 MSTORE POP POP JUMP JUMPDEST PUSH0 PUSH1 0x20 DUP3 ADD SWAP1 POP PUSH2 0x343 PUSH0 DUP4 ADD DUP5 PUSH2 0x321 JUMP JUMPDEST SWAP3 SWAP2 POP POP JUMP JUMPDEST PUSH0 DUP3 DUP3 MSTORE PUSH1 0x20 DUP3 ADD SWAP1 POP SWAP3 SWAP2 POP POP JUMP JUMPDEST PUSH32 0x496E73756666696369656E742066756E647320746F2077697468647261770000 PUSH0 DUP3 ADD MSTORE POP JUMP JUMPDEST PUSH0 PUSH2 0x38D PUSH1 0x1E DUP4 PUSH2 0x349 JUMP JUMPDEST SWAP2 POP PUSH2 0x398 DUP3 PUSH2 0x359 JUMP JUMPDEST PUSH1 0x20 DUP3 ADD SWAP1 POP SWAP2 SWAP1 POP JUMP JUMPDEST PUSH0 PUSH1 0x20 DUP3 ADD SWAP1 POP DUP2 DUP2 SUB PUSH0 DUP4 ADD MSTORE PUSH2 0x3BA DUP2 PUSH2 0x381 JUMP JUMPDEST SWAP1 POP SWAP2 SWAP1 POP JUMP JUMPDEST PUSH0 DUP2 SWAP1 POP SWAP3 SWAP2 POP POP JUMP JUMPDEST POP JUMP JUMPDEST PUSH0 PUSH2 0x3D9 PUSH0 DUP4 PUSH2 0x3C1 JUMP JUMPDEST SWAP2 POP PUSH2 0x3E4 DUP3 PUSH2 0x3CB JUMP JUMPDEST PUSH0 DUP3 ADD SWAP1 POP SWAP2 SWAP1 POP JUMP JUMPDEST PUSH0 PUSH2 0x3F8 DUP3 PUSH2 0x3CE JUMP JUMPDEST SWAP2 POP DUP2 SWAP1 POP SWAP2 SWAP1 POP JUMP JUMPDEST PUSH32 0x5769746864726177616C2066616C696564000000000000000000000000000000 PUSH0 DUP3 ADD MSTORE POP JUMP JUMPDEST PUSH0 PUSH2 0x436 PUSH1 0x11 DUP4 PUSH2 0x349 JUMP JUMPDEST SWAP2 POP PUSH2 0x441 DUP3 PUSH2 0x402 JUMP JUMPDEST PUSH1 0x20 DUP3 ADD SWAP1 POP SWAP2 SWAP1 POP JUMP JUMPDEST PUSH0 PUSH1 0x20 DUP3 ADD SWAP1 POP DUP2 DUP2 SUB PUSH0 DUP4 ADD MSTORE PUSH2 0x463 DUP2 PUSH2 0x42A JUMP JUMPDEST SWAP1 POP SWAP2 SWAP1 POP JUMP JUMPDEST PUSH32 0x4E487B7100000000000000000000000000000000000000000000000000000000 PUSH0 MSTORE PUSH1 0x11 PUSH1 0x4 MSTORE PUSH1 0x24 PUSH0 REVERT JUMPDEST PUSH0 PUSH2 0x4A1 DUP3 PUSH2 0x318 JUMP JUMPDEST SWAP2 POP PUSH2 0x4AC DUP4 PUSH2 0x318 JUMP JUMPDEST SWAP3 POP DUP3 DUP3 ADD SWAP1 POP DUP1 DUP3 GT ISZERO PUSH2 0x4C4 JUMPI PUSH2 0x4C3 PUSH2 0x46A JUMP JUMPDEST JUMPDEST SWAP3 SWAP2 POP POP JUMP INVALID LOG2 PUSH5 0x6970667358 0x22 SLT KECCAK256 DUP4 COINBASE PUSH24 0x74F706A30F6656F9961E4D3FB16FA013E0B9CFB21BF51881 0x4B PUSH22 0x39E08B64736F6C634300081E00330000000000000000 "
				},
				"gasEstimates": {
					"creation": {
						"codeDepositCost": "256000",
						"executionCost": "292",
						"totalCost": "256292"
					},
					"external": {
						"deposit()": "infinite",
						"getTotalFunds()": "378",
						"myBalance()": "2518",
						"withdraw()": "infinite"
					}
				},
				"methodIdentifiers": {
					"deposit()": "d0e30db0",
					"getTotalFunds()": "eb8bbd28",
					"myBalance()": "c9116b69",
					"withdraw()": "3ccfd60b"
				}
			},
			"storageLayout": {
				"storage": [
					{
						"astId": 5,
						"contract": "contracts/FundRaiser.sol:FundRaiser",
						"label": "balances",
						"offset": 0,
						"slot": "0",
						"type": "t_mapping(t_address,t_uint256)"
					}
				],
				"types": {
					"t_address": {
						"encoding": "inplace",
						"label": "address",
						"numberOfBytes": "20"
					},
					"t_mapping(t_address,t_uint256)": {
						"encoding": "mapping",
						"key": "t_address",
						"label": "mapping(address => uint256)",
						"numberOfBytes": "32",
						"value": "t_uint256"
					},
					"t_uint256": {
						"encoding": "inplace",
						"label": "uint256",
						"numberOfBytes": "32"
					}
				}
			},
			"userdoc": {
				"kind": "user",
				"methods": {
					"withdraw()": {
						"notice": "This function is prone to reentrant attack as the modification of state variable is done after the interaction with external contract"
					}
				},
				"version": 1
			}
		}
	}
}